:100000000C942A000C943C000C943C000C943C0092
:100010000C943C000C943C000C943C000C943C0070
:100020000C943C000C943C000C943C000C943C0060
:100030000C943C000C943C000C943C000C943C0050
:100040000C943C000C943C000C943C000C943C0040
:100050000C943C0011241FBECFE5D8E0DEBFCDBF1D
:1000600020E0A0E6B0E001C01D92A536B207E1F79E
:100070000E94D9000C9409020C94000041E065E054
:1000800084E40E94F60041E066E084E40E94F60009
:1000900041E067E084E40E94F60040E065E084E42B
:1000A0000E946E0140E066E084E40E946E0140E040
:1000B00067E084E40E946E018FEF84BB81B38360AC
:1000C00081BB8AB38E7F8ABB0E94E60108950E949D
:1000D0000302809363008BBB80916300813031F019
:1000E00040F0823049F0833091F01BC00E94BF0085
:1000F00018C00E94A50015C041E066E084E40E949B
:100100006E0141E067E084E40E946E010AC040E0B5
:1001100066E084E40E946E0140E067E084E40E94AF
:100120006E010E94DE0080E00E94E6009093610074
:1001300080936000809160009091610085BB809108
:1001400060009091610092BB089541E065E084E415
:100150000E946E0189EF90E00197F1F700C0000066
:1001600040E065E084E40E946E019FE72AE186E0BA
:10017000915020408040E1F700C00000089541E028
:1001800065E084E40E946E0183EF91E00197F1F74E
:1001900000C0000040E065E084E40E946E019FE73B
:1001A0002AE186E0915020408040E1F700C0000045
:1001B00008950E943E000E946700FDCF87B18064D1
:1001C00087B916B886B1806886B9089597B18F70DF
:1001D000982B97B986B1806486B9349BFECF24B141
:1001E00085B190E0982F8827822B0895823429F1D9
:1001F00018F4813439F008958334D1F1843409F44A
:1002000052C00895413059F42AB381E090E002C011
:10021000880F991F6A95E2F7822B8ABB08954111D6
:100220005CC02AB381E090E002C0880F991F6A95F4
:10023000E2F7809582238ABB0895413059F427B3B1
:1002400081E090E002C0880F991F6A95E2F7822B47
:1002500087BB0895411141C027B381E090E002C0FF
:10026000880F991F6A95E2F78095822387BB0895CE
:10027000413059F424B381E090E002C0880F991F07
:100280006A95E2F7822B84BB0895411126C024B3FE
:1002900081E090E002C0880F991F6A95E2F780958F
:1002A000822384BB0895413059F421B381E090E06A
:1002B00002C0880F991F6A95E2F7822B81BB0895CF
:1002C00041110BC021B381E090E002C0880F991F5B
:1002D0006A95E2F78095822381BB0895823429F1E3
:1002E00018F4813439F008958334D1F1843409F459
:1002F00052C00895413059F42BB381E090E002C020
:10030000880F991F6A95E2F7822B8BBB08954111E4
:100310005CC02BB381E090E002C0880F991F6A9502
:10032000E2F7809582238BBB0895413059F428B3BE
:1003300081E090E002C0880F991F6A95E2F7822B56
:1003400088BB0895411141C028B381E090E002C00C
:10035000880F991F6A95E2F78095822388BB0895DC
:10036000413059F425B381E090E002C0880F991F15
:100370006A95E2F7822B85BB0895411126C025B30B
:1003800081E090E002C0880F991F6A95E2F780959E
:10039000822385BB0895413059F422B381E090E077
:1003A00002C0880F991F6A95E2F7822B82BB0895DD
:1003B00041110BC022B381E090E002C0880F991F69
:1003C0006A95E2F78095822382BB08958FEF8ABBFE
:1003D00040E064E082E40E94F60040E067E082E4EE
:1003E0000E94F60040E065E082E40E94F60041E0F1
:1003F00066E082E40E94F6008DB182648DB98EB110
:100400008E7F8EB908958FEF8FB9779BFECF8FB116
:060410000895F894FFCFEF
:00000001FF
