S00F00004D61737465725F2E737265634A
S11300000C942A000C9447000C9447000C9447006D
S11300100C9447000C9447000C9447000C94470040
S11300200C9447000C9447000C9447000C94470030
S11300300C9447000C9447000C9447000C94470020
S11300400C9447000C9447000C9447000C94470010
S11300500C94470011241FBECFE5D8E0DEBFCDBF0E
S113006010E0A0E6B0E0EEE7FEE002C005900D92DD
S1130070A837B107D9F720E0A8E7B0E001C01D9286
S1130080AA39B207E1F70E9472010C943D070C945F
S1130090000041E065E084E40E948F0140E065E0F7
S11300A084E40E94070241E066E084E40E948F0138
S11300B040E066E084E40E94070241E067E084E4F3
S11300C00E948F0140E067E084E40E94070241E05F
S11300D060E083E40E948F0140E060E083E40E94DA
S11300E007020E942E030E94BC0240E060E081E40B
S11300F00E948F010E9477010895AC0190E003C033
S113010020E220839F5FFA01E90FF11D2081211174
S1130110F7CF0895CF93DF93C1E8D0E089810E949F
S1130120DE0288810E94DE02DF91CF91089581E092
S11301300E947F0280E00E947F0190937C00809364
S11301407B0060917B0070917C0080E090E00E94D5
S1130150D80520E030E040EA5BE30E94D00620E0CE
S113016030E040E251E40E94D0060E94A905609369
S1130170800082E690E00E941B03809180008E3113
S113018030F041E060E083E40E94070205C040E0F3
S113019060E083E40E94070210927A0010927900D2
S11301A081E090E090936100809360001092780069
S11301B030E017C0E32FF0E0EF57FF4F9DEC899F2D
S11301C0912D1124969596959695492F440F242F99
S11301D0220F220F240F821B805D80839093800066
S11301E03F5F809180008111E5CF0E948A0081E801
S11301F090E00E947D0008950E944B0380937E004E
S11302008BBB80917E00823001F128F4882361F059
S1130210813039F00895843051F010F1853059F16E
S113022008950E94580108950E943E0108958FE6A2
S113023090E00E941B0361E070E088EB9BE00E9469
S1130240B30381E00E947F02089541E066E084E404
S11302500E94070241E067E084E40E9407020895D7
S113026040E066E084E40E94070240E067E084E442
S11302700E94070208950E949700089541E065E0F6
S113028084E40E94070289EF90E00197F1F700C02F
S1130290000040E065E084E40E9407029FE72AE151
S11302A086E0915020408040E1F700C000000895AE
S11302B041E065E084E40E94070283EF91E0019746
S11302C0F1F700C0000040E065E084E40E9407020A
S11302D09FE72AE186E0915020408040E1F700C08A
S11302E0000008950E9449000E94FC00FDCF87B1E0
S11302F0806487B916B886B1806886B9089597B1C5
S11303008F70982B97B986B1806486B9349BFECFE1
S113031024B185B190E0982F8827822B08958234E8
S113032029F118F4813439F008958334D1F18434F7
S113033009F452C00895413059F42AB381E090E0A1
S113034002C0880F991F6A95E2F7822B8ABB089531
S113035041115CC02AB381E090E002C0880F991F6C
S11303606A95E2F7809582238ABB0895413059F457
S113037027B381E090E002C0880F991F6A95E2F7E5
S1130380822B87BB0895411141C027B381E090E0DF
S113039002C0880F991F6A95E2F78095822387BB74
S11303A00895413059F424B381E090E002C0880FED
S11303B0991F6A95E2F7822B84BB0895411126C0E8
S11303C024B381E090E002C0880F991F6A95E2F798
S11303D08095822384BB0895413059F421B381E090
S11303E090E002C0880F991F6A95E2F7822B81BBC7
S11303F0089541110BC021B381E090E002C0880F41
S1130400991F6A95E2F78095822381BB089582340F
S113041029F118F4813439F008958334D1F1843406
S113042009F452C00895413059F42BB381E090E0AF
S113043002C0880F991F6A95E2F7822B8BBB08953F
S113044041115CC02BB381E090E002C0880F991F7A
S11304506A95E2F7809582238BBB0895413059F465
S113046028B381E090E002C0880F991F6A95E2F7F3
S1130470822B88BB0895411141C028B381E090E0EC
S113048002C0880F991F6A95E2F78095822388BB82
S11304900895413059F425B381E090E002C0880FFB
S11304A0991F6A95E2F7822B85BB0895411126C0F6
S11304B025B381E090E002C0880F991F6A95E2F7A6
S11304C08095822385BB0895413059F422B381E09D
S11304D090E002C0880F991F6A95E2F7822B82BBD5
S11304E0089541110BC022B381E090E002C0880F4F
S11304F0991F6A95E2F78095822382BB0895CF9372
S1130500C82F85B38F709C2F907F892B85BB82B3B6
S11305108B7F82BB82B3877F82BB82B3806182BBC5
S113052061E070E081E090E00E94B30382B38F7ECB
S113053082BB61E070E081E090E00E94B30325B3E8
S113054030E1C39FC0011124922F9F70892B85BB7A
S113055082B3806182BB61E070E081E090E00E9440
S1130560B30382B38F7E82BB61E070E081E090E0F0
S11305700E94B303CF91089581B38C6181BB84B38E
S1130580806F84BB80E00E94510361E070E084E1ED
S113059090E00E94B30382E00E947F0288E20E94FE
S11305A07F028CE00E947F0286E00E947F0281E04D
S11305B00E947F0280E80E947F020895CF93C82F93
S11305C085B38F709C2F907F892B85BB82B3846009
S11305D082BB82B3877F82BB82B3806182BB61E0CE
S11305E070E081E090E00E94B30382B38F7E82BB0F
S11305F061E070E081E090E00E94B30325B330E154
S1130600C39FC0011124922F9F70892B85BB82B395
S1130610806182BB61E070E081E090E00E94B303FE
S113062082B38F7E82BB61E070E081E090E00E9443
S1130630B303CF9108950F931F93CF938C01C0E020
S113064003C00E94DE02CF5FF801EC0FF11D808130
S11306508111F7CFCF911F910F9108958FEF8ABB2E
S113066040E064E082E40E948F0140E067E082E4BD
S11306700E948F0140E065E082E40E948F0141E026
S113068066E082E40E948F018DB182648DB98EB1DF
S11306908E7F8EB908958FEF8FB9779BFECF8FB180
S11306A00895813069F028F0823089F08330B1F008
S11306B0089583B7877F83BF83B78F7B83BF0895F4
S11306C083B7877F83BF83B7806483BF089583B76D
S11306D0886083BF83B78F7B83BF089583B78860A7
S11306E083BF83B7806483BF089588309105D1F0B8
S11306F048F48530910531F18630910539F101973F
S113070041F50CC0811521E09207A1F0811524E088
S11307109207A1F080349105E1F408C083B78160A9
S113072083BF089583B7826083BF089583B78360CE
S113073083BF089583B7846083BF089583B78560BA
S113074083BF089583B7866083BF089583B78760A6
S113075083BF089508B600FEFDCF88B7816088BFC7
S1130760089513BE08954F925F926F927F928F9275
S11307709F92AF92BF92CF92DF92EF92FF92CF936C
S1130780DF9300D000D000D0CDB7DEB77E836D8379
S1130790BC0180E090E00E94D80569837A838B8352
S11307A09C832FE632E143E85AE30E94D0064B01D2
S11307B05C0160938F0070939000809391009093FC
S11307C092002D813E81B90180E090E00E94D8051D
S11307D020E034E244E759E40E9437052B013C0150
S11307E0609396007093970080939800909399007B
S11307F020E030E040E853E40E94D0066B017C0125
S113080060938B0070938C0080938D0090938E0086
S11308109B01AC0169817A818B819C810E943205A4
S11308208823BCF429813A814B815C81C701B601DC
S11308300E94AE04A30192010E9437050E94A905FB
S11308406093950081E090E090938600809385000A
S11308504CC0A701960169817A818B819C810E9499
S11308603205811109C01092950081E090E09093C7
S113087086008093850039C0A7019601C501B401A3
S11308800E94CB0618168CF5A7019601C501B40188
S11308900E9437050E941B050E94A9056B017C017B
S11308A07093860060938500A3019201C501B40191
S11308B00E9437054B015C01B60180E090E00E9484
S11308C0D8059B01AC01C501B4010E9437059B0109
S11308D0AC0160E070E080E893E40E94AE040E9402
S11308E01B050E94A905609395008091950082BF25
S11308F08D819E810E9475030BC00E94AA03809182
S113090093009091940001969093940080939300A7
S113091020919300309194008091850090918600FD
S11309202817390750F310929400109293000E94F4
S1130930B10326960FB6F894DEBF0FBECDBFDF918C
S1130940CF91FF90EF90DF90CF90BF90AF909F90AA
S11309508F907F906F905F904F9008955058BB2771
S1130960AA270E94C6040C9479060E946B0638F0EC
S11309700E94720620F039F49F3F19F426F40C9477
S113098068060EF4E095E7FB0C943906E92F0E9403
S11309908A0658F3BA17620773078407950720F08D
S11309A079F4A6F50C94C4060EF4E0950B2EBA2F38
S11309B0A02D0B01B90190010C01CA01A001112461
S11309C0FF27591B99F0593F50F4503E68F11A160D
S11309D0F040A22F232F342F4427585FF3CF46959E
S11309E037952795A795F0405395C9F77EF41F16C0
S11309F0BA0B620B730B840BBAF09150A1F0FF0F8A
S1130A00BB1F661F771F881FC2F70EC0BA0F621F75
S1130A10731F841F48F4879577956795B795F79565
S1130A209E3F08F0B0CF9395880F08F09927EE0FFA
S1130A309795879508950E94AC0690F09F3748F4E7
S1130A40911116F40C94C50660E070E080E89FE311
S1130A50089526F01B16611D711D811D0C943F061F
S1130A600C945A060E94150608F481E008950E9429
S1130A704B050C9479060E94720658F00E946B068E
S1130A8040F029F45F3F29F00C94390651110C947D
S1130A90C5060C9468060E948A0668F39923B1F38C
S1130AA0552391F3951B550BBB27AA276217730790
S1130AB0840738F09F5F5F4F220F331F441FAA1F24
S1130AC0A9F335D00E2E3AF0E0E832D091505040E0
S1130AD0E695001CCAF72BD0FE2F29D0660F771F8E
S1130AE0881FBB1F261737074807AB07B0E809F074
S1130AF0BB0B802DBF01FF2793585F4F3AF09E3FF9
S1130B00510578F00C9439060C94C5065F3FE4F364
S1130B10983ED4F3869577956795B795F7959F5F3B
S1130B20C9F7880F911D9695879597F90895E1E087
S1130B30660F771F881FBB1F621773078407BA07E6
S1130B4020F0621B730B840BBA0BEE1F88F7E09541
S1130B5008950E94920688F09F5798F0B92F99271C
S1130B60B751B0F0E1F0660F771F881F991F1AF094
S1130B70BA95C9F714C0B13091F00E94C406B1E02F
S1130B8008950C94C406672F782F8827B85F39F02E
S1130B90B93FCCF3869577956795B395D9F73EF42D
S1130BA090958095709561957F4F8F4F9F4F0895D5
S1130BB0E89409C097FB3EF49095809570956195F3
S1130BC07F4F8F4F9F4F9923A9F0F92F96E9BB27A9
S1130BD09395F695879577956795B795F111F8CF25
S1130BE0FAF4BB0F11F460FF1BC06F5F7F4F8F4F90
S1130BF09F4F16C0882311F096E911C0772321F086
S1130C009EE8872F762F05C0662371F096E8862F1D
S1130C1070E060E02AF09A95660F771F881FDAF774
S1130C20880F9695879597F90895990F0008550FA1
S1130C30AA0BE0E8FEEF16161706E807F907C0F05E
S1130C4012161306E407F50798F0621B730B840B66
S1130C50950B39F40A2661F0232B242B252B21F440
S1130C6008950A2609F4A140A6958FEF811D811DE0
S1130C70089597F99F6780E870E060E008958823FD
S1130C8071F4772321F09850872B762F07C06623C1
S1130C9011F499270DC09051862B70E060E02AF082
S1130CA09A95660F771F881FDAF7880F96958795B0
S1130CB097F908959F3F31F0915020F487957795E7
S1130CC06795B795880F911D9695879597F908951F
S1130CD09FEF80EC089500240A9416161706180650
S1130CE00906089500240A9412161306140605062C
S1130CF00895092E0394000C11F4882352F0BB0FBD
S1130D0040F4BF2B11F460FF04C06F5F7F4F8F4F1F
S1130D109F4F089557FD9058440F551F59F05F3F5A
S1130D2071F04795880F97FB991F61F09F3F79F009
S1130D3087950895121613061406551FF2CF46958B
S1130D40F1DF08C0161617061806991FF1CF86950D
S1130D5071056105089408950E949206A0F0BEE70B
S1130D60B91788F4BB279F3860F41616B11D672F96
S1130D70782F8827985FF7CF869577956795B11D6B
S1130D8093959639C8F30895E894BB276627772787
S1130D90CB0197F908950E94150608F48FEF089582
S1130DA00E94E3060C9479060E946B0638F00E94B8
S1130DB0720620F0952311F00C9439060C94680601
S1130DC011240C94C5060E948A0670F3959FC1F302
S1130DD0950F50E0551F629FF001729FBB27F00DE5
S1130DE0B11D639FAA27F00DB11DAA1F649F66273A
S1130DF0B00DA11D661F829F2227B00DA11D621F89
S1130E00739FB00DA11D621F839FA00D611D221F42
S1130E10749F3327A00D611D231F849F600D211D26
S1130E20822F762F6A2F11249F5750409AF0F1F0A9
S1130E3088234AF0EE0FFF1FBB1F661F771F881F12
S1130E4091505040A9F79E3F510580F00C9439060B
S1130E500C94C5065F3FE4F3983ED4F386957795EA
S1130E606795B795F795E7959F5FC1F7FE2B880FB8
S1110E70911D9695879597F90895F894FFCFF4
S1130E7E010054656D7020696E2043203D2000579B
S10B0E8E656C636F6D650000E3
S9030000FC
