:100000000C942A000C9447000C9447000C94470071
:100010000C9447000C9447000C9447000C94470044
:100020000C9447000C9447000C9447000C94470034
:100030000C9447000C9447000C9447000C94470024
:100040000C9447000C9447000C9447000C94470014
:100050000C94470011241FBECFE5D8E0DEBFCDBF12
:1000600010E0A0E6B0E0ECE6FEE002C005900D92E4
:10007000A837B107D9F720E0A8E7B0E001C01D928A
:10008000AB39B207E1F70E9482010C9434070C945B
:10009000000041E065E084E40E949F0140E065E0EB
:1000A00084E40E94170241E066E084E40E949F011C
:1000B00040E066E084E40E94170241E067E084E4E7
:1000C0000E949F0140E067E084E40E94170241E043
:1000D00063E082E40E949F0140E063E082E40E94CA
:1000E00017020E943E030E94CC0240E060E081E4DF
:1000F0000E949F010E9487010895AC0190E003C017
:1001000020E220839F5FFA01E90FF11D2081211178
:10011000F7CF0895CF93DF93C2E8D0E089810E94A2
:10012000EE0288810E94EE02DF91CF91089581E076
:100130000E948F0280E00E948F0190937C00809348
:100140007B0060917B0070917C0080E090E00E94D9
:10015000CF0520E030E040EA5BE30E94C70620E0E4
:1001600030E040E251E40E94C7060E94A00560937F
:1001700080006093810082E690E00E942B03109241
:100180007A001092790081E090E090936100809372
:1001900060001092780030E017C0E32FF0E0EE57D7
:1001A000FF4F9DEC899F912D1124969596959695DC
:1001B000492F440F242F220F220F240F821B805D12
:1001C0008083909380003F5F809180008111E5CF14
:1001D0000E948A0082E890E00E947D0008950E94BB
:1001E0005B0380937E008BBB80917E00823001F1A7
:1001F00028F4882361F0813039F032C0843051F026
:1002000010F1853059F12CC00E944E0129C00E9486
:10021000730126C08FE690E00E942B0361E070E03E
:1002200088EB9BE00E94C30381E00E948F0218C00C
:1002300041E066E084E40E94170241E067E084E464
:100240000E9417020DC040E066E084E40E9417029D
:1002500040E067E084E40E94170202C00E94970019
:1002600080918100893128F081E683BF84E68CBFCC
:10027000089513BE089520E030E00CC012BE81E066
:1002800083BF08B600FEFDCF13BE88B7816088BF6C
:100290002F5F3F4F2A30310588F3089541E065E034
:1002A00084E40E9417020E943B0140E065E084E480
:1002B0000E94170261E070E080ED97E00E94C303A6
:1002C000089580E090E00BC012BE21E023BF08B685
:1002D00000FEFDCF13BE28B7216028BF01968230F3
:1002E000910590F3089582B3806282BB0E94610100
:1002F00082B38F7D82BB61E070E080ED97E00E9469
:10030000C30308950E9449000E94EF00FDCF87B10A
:10031000806487B916B886B1806886B9089597B1A8
:100320008F70982B97B986B1806486B9349BFECFC5
:1003300024B185B190E0982F8827822B08958234CC
:1003400029F118F4813439F008958334D1F18434DB
:1003500009F452C00895413059F42AB381E090E085
:1003600002C0880F991F6A95E2F7822B8ABB089515
:1003700041115CC02AB381E090E002C0880F991F50
:100380006A95E2F7809582238ABB0895413059F43B
:1003900027B381E090E002C0880F991F6A95E2F7C9
:1003A000822B87BB0895411141C027B381E090E0C3
:1003B00002C0880F991F6A95E2F78095822387BB58
:1003C0000895413059F424B381E090E002C0880FD1
:1003D000991F6A95E2F7822B84BB0895411126C0CC
:1003E00024B381E090E002C0880F991F6A95E2F77C
:1003F0008095822384BB0895413059F421B381E074
:1004000090E002C0880F991F6A95E2F7822B81BBAA
:10041000089541110BC021B381E090E002C0880F24
:10042000991F6A95E2F78095822381BB08958234F3
:1004300029F118F4813439F008958334D1F18434EA
:1004400009F452C00895413059F42BB381E090E093
:1004500002C0880F991F6A95E2F7822B8BBB089523
:1004600041115CC02BB381E090E002C0880F991F5E
:100470006A95E2F7809582238BBB0895413059F449
:1004800028B381E090E002C0880F991F6A95E2F7D7
:10049000822B88BB0895411141C028B381E090E0D0
:1004A00002C0880F991F6A95E2F78095822388BB66
:1004B0000895413059F425B381E090E002C0880FDF
:1004C000991F6A95E2F7822B85BB0895411126C0DA
:1004D00025B381E090E002C0880F991F6A95E2F78A
:1004E0008095822385BB0895413059F422B381E081
:1004F00090E002C0880F991F6A95E2F7822B82BBB9
:10050000089541110BC022B381E090E002C0880F32
:10051000991F6A95E2F78095822382BB0895CF9355
:10052000C82F85B38F709C2F907F892B85BB82B39A
:100530008B7F82BB82B3877F82BB82B3806182BBA9
:1005400061E070E081E090E00E94C30382B38F7E9F
:1005500082BB61E070E081E090E00E94C30325B3BC
:1005600030E1C39FC0011124922F9F70892B85BB5E
:1005700082B3806182BB61E070E081E090E00E9424
:10058000C30382B38F7E82BB61E070E081E090E0C4
:100590000E94C303CF91089581B38C6181BB84B362
:1005A000806F84BB80E00E94610361E070E084E1C1
:1005B00090E00E94C30382E00E948F0288E20E94C2
:1005C0008F028CE00E948F0286E00E948F0281E001
:1005D0000E948F0280E80E948F020895CF93C82F57
:1005E00085B38F709C2F907F892B85BB82B38460ED
:1005F00082BB82B3877F82BB82B3806182BB61E0B2
:1006000070E081E090E00E94C30382B38F7E82BBE2
:1006100061E070E081E090E00E94C30325B330E127
:10062000C39FC0011124922F9F70892B85BB82B379
:10063000806182BB61E070E081E090E00E94C303D2
:1006400082B38F7E82BB61E070E081E090E00E9427
:10065000C303CF9108950F931F93CF938C01C0E0F4
:1006600003C00E94EE02CF5FF801EC0FF11D808104
:100670008111F7CFCF911F910F9108958FEF8ABB12
:1006800040E064E082E40E949F0140E067E082E491
:100690000E949F0140E065E082E40E949F0141E0EA
:1006A00066E082E40E949F018DB182648DB98EB1B3
:1006B0008E7F8EB908958FEF8FB9779BFECF8FB164
:1006C0000895813069F028F0823089F08330B1F0EC
:1006D000089583B7877F83BF83B78F7B83BF0895D8
:1006E00083B7877F83BF83B7806483BF089583B751
:1006F000886083BF83B78F7B83BF089583B788608B
:1007000083BF83B7806483BF089588309105D1F09B
:1007100048F48530910531F18630910539F1019722
:1007200041F50CC0811521E09207A1F0811524E06C
:100730009207A1F080349105E1F408C083B781608D
:1007400083BF089583B7826083BF089583B78360B2
:1007500083BF089583B7846083BF089583B785609E
:1007600083BF089583B7866083BF089583B787608A
:1007700083BF089508B600FEFDCF88B7816088BFAB
:10078000089513BE08954F925F926F927F928F9259
:100790009F92AF92BF92CF92DF92EF92FF92CF9350
:1007A000DF93EB01BC0180E090E00E94CF052FE6D3
:1007B00032E143E85AE30E94C7066B017C01609373
:1007C0009000709391008093920090939300BE01EB
:1007D00080E090E00E94CF0520E034E244E759E455
:1007E0000E942E052B013C016093970070939800A6
:1007F0008093990090939A0020E030E040E853E421
:100800000E94C7064B015C0160938C0070938D00C1
:1008100080938E0090938F009B01AC01C701B601BD
:100820000E9429058823ACF4A7019601C501B401F3
:100830000E94A504A30192010E942E050E94A0051A
:100840006093960081E090E090938700809386000B
:100850004AC0A5019401C701B6010E942905811172
:1008600009C01092960081E090E0909387008093F9
:10087000860039C0A5019401C701B6010E94C206D5
:1008800018168CF5A5019401C701B6010E942E052A
:100890000E9412050E94A0054B015C017093870025
:1008A00060938600A3019201C701B6010E942E0544
:1008B0006B017C01B40180E090E00E94CF059B01B8
:1008C000AC01C701B6010E942E059B01AC0160E09E
:1008D00070E080E893E40E94A5040E9412050E9443
:1008E000A005609396008091960082BFCE010E9481
:1008F00085030BC00E94BA038091940090919500EB
:1009000001969093950080939400209194003091EB
:10091000950080918600909187002817390750F341
:1009200010929500109294000E94C103DF91CF9124
:10093000FF90EF90DF90CF90BF90AF909F908F90FF
:100940007F906F905F904F9008955058BB27AA27D3
:100950000E94BD040C9470060E94620638F00E944A
:10096000690620F039F49F3F19F426F40C945F06D1
:100970000EF4E095E7FB0C943006E92F0E94810607
:1009800058F3BA17620773078407950720F079F4C4
:10099000A6F50C94BB060EF4E0950B2EBA2FA02DF5
:1009A0000B01B90190010C01CA01A0011124FF271C
:1009B000591B99F0593F50F4503E68F11A16F04017
:1009C000A22F232F342F4427585FF3CF4695379516
:1009D0002795A795F0405395C9F77EF41F16BA0BDB
:1009E000620B730B840BBAF09150A1F0FF0FBB1F89
:1009F000661F771F881FC2F70EC0BA0F621F731FD2
:100A0000841F48F4879577956795B795F7959E3F2E
:100A100008F0B0CF9395880F08F09927EE0F9795BF
:100A2000879508950E94A30690F09F3748F491118E
:100A300016F40C94BC0660E070E080E89FE3089533
:100A400026F01B16611D711D811D0C9436060C9439
:100A500051060E940C0608F481E008950E944205A8
:100A60000C9470060E94690658F00E94620640F0DD
:100A700029F45F3F29F00C94300651110C94BC0608
:100A80000C945F060E94810668F39923B1F3552305
:100A900091F3951B550BBB27AA2762177307840791
:100AA00038F09F5F5F4F220F331F441FAA1FA9F327
:100AB00035D00E2E3AF0E0E832D091505040E69515
:100AC000001CCAF72BD0FE2F29D0660F771F881F76
:100AD000BB1F261737074807AB07B0E809F0BB0B69
:100AE000802DBF01FF2793585F4F3AF09E3F51057D
:100AF00078F00C9430060C94BC065F3FE4F3983E0B
:100B0000D4F3869577956795B795F7959F5FC9F765
:100B1000880F911D9695879597F90895E1E0660FE6
:100B2000771F881FBB1F621773078407BA0720F05F
:100B3000621B730B840BBA0BEE1F88F7E0950895C8
:100B40000E94890688F09F5798F0B92F9927B751CE
:100B5000B0F0E1F0660F771F881F991F1AF0BA9561
:100B6000C9F714C0B13091F00E94BB06B1E00895FE
:100B70000C94BB06672F782F8827B85F39F0B93FF0
:100B8000CCF3869577956795B395D9F73EF4909514
:100B90008095709561957F4F8F4F9F4F0895E89492
:100BA00009C097FB3EF490958095709561957F4FB5
:100BB0008F4F9F4F9923A9F0F92F96E9BB27939563
:100BC000F695879577956795B795F111F8CFFAF473
:100BD000BB0F11F460FF1BC06F5F7F4F8F4F9F4FA4
:100BE00016C0882311F096E911C0772321F09EE802
:100BF000872F762F05C0662371F096E8862F70E068
:100C000060E02AF09A95660F771F881FDAF7880F41
:100C10009695879597F90895990F0008550FAA0B97
:100C2000E0E8FEEF16161706E807F907C0F01216FF
:100C30001306E407F50798F0621B730B840B950B02
:100C400039F40A2661F0232B242B252B21F4089557
:100C50000A2609F4A140A6958FEF811D811D0895F4
:100C600097F99F6780E870E060E00895882371F449
:100C7000772321F09850872B762F07C0662311F435
:100C800099270DC09051862B70E060E02AF09A956C
:100C9000660F771F881FDAF7880F9695879597F963
:100CA00008959F3F31F0915020F48795779567958F
:100CB000B795880F911D9695879597F908959FEFA1
:100CC00080EC089500240A941616170618060906E3
:100CD000089500240A9412161306140605060895B2
:100CE000092E0394000C11F4882352F0BB0F40F43A
:100CF000BF2B11F460FF04C06F5F7F4F8F4F9F4F7A
:100D0000089557FD9058440F551F59F05F3F71F0FB
:100D10004795880F97FB991F61F09F3F79F0879562
:100D20000895121613061406551FF2CF4695F1DFEB
:100D300008C0161617061806991FF1CF869571057B
:100D40006105089408950E948906A0F0BEE7B917CE
:100D500088F4BB279F3860F41616B11D672F782FD3
:100D60008827985FF7CF869577956795B11D9395FE
:100D70009639C8F30895E894BB2766277727CB01F7
:100D800097F908950E940C0608F48FEF08950E94C9
:100D9000DA060C9470060E94620638F00E9469061A
:100DA00020F0952311F00C9430060C945F0611246A
:100DB0000C94BC060E94810670F3959FC1F3950FB9
:100DC00050E0551F629FF001729FBB27F00DB11DCF
:100DD000639FAA27F00DB11DAA1F649F6627B00D5F
:100DE000A11D661F829F2227B00DA11D621F739F48
:100DF000B00DA11D621F839FA00D611D221F749F56
:100E00003327A00D611D231F849F600D211D822F9C
:100E1000762F6A2F11249F5750409AF0F1F08823C3
:100E20004AF0EE0FFF1FBB1F661F771F881F9150F0
:100E30005040A9F79E3F510580F00C9430060C9469
:100E4000BC065F3FE4F3983ED4F3869577956795AB
:100E5000B795F795E7959F5FC1F7FE2B880F911D1A
:0C0E60009695879597F90895F894FFCFB8
:100E6C00010054656D7020696E2043203D200057B1
:080E7C00656C636F6D650000F9
:00000001FF
