:100000000C942A000C9447000C9447000C94470071
:100010000C9447000C9447000C9447000C94470044
:100020000C9447000C9447000C9447000C94470034
:100030000C9447000C9447000C9447000C94470024
:100040000C9447000C9447000C9447000C94470014
:100050000C94470011241FBECFE5D8E0DEBFCDBF12
:1000600010E0A0E6B0E0E6EAFEE002C005900D92E6
:10007000A837B107D9F720E0A8E7B0E001C01D928A
:10008000A939B207E1F70E9477010C9451070C944B
:10009000000041E065E084E40E94940141E066E0F4
:1000A00084E40E94940141E067E084E40E949401AA
:1000B00040E065E084E40E940C0240E066E084E4F5
:1000C0000E940C0240E067E084E40E940C020E945F
:1000D00033030E94C10240E060E081E40E94940189
:1000E0000E947C010895AC0190E003C020E22083CF
:1000F0009F5FFA01E90FF11D20812111F7CF0895CB
:10010000CF93DF93C0E8D0E08B810E94E3028A8125
:100110000E94E30289810E94E30288810E94E30237
:10012000DF91CF910895CF93DF9381E00E94840205
:1001300080E00E94840190937C0080937B0082E6A3
:1001400090E00E94200361E070E080ED97E00E9463
:10015000B80381E00E94840210927A001092790024
:1001600081E090E0909361008093600010927800AD
:10017000E0E038C04E2F50E0C0917B00D0917C0071
:100180009E01ADECBCEC0E94420796958795969532
:100190008795969587959C01220F331F880F991F8D
:1001A000880F991F880F991F820F931F9E01281B8C
:1001B000390BC901DA01A058BF4F805D8C932091A3
:1001C0007B0030917C00ADECBCEC0E944207969520
:1001D0008795969587959695879590937C008093C3
:1001E0007B00EF5F80917B0090917C00892B11F662
:1001F0000E94800080E890E00E947300DF91CF9120
:1002000008950E94500380937E008BBB80917E00F6
:10021000823001F128F4882361F0813039F00895AB
:10022000843051F010F1853059F108950E945D013C
:1002300008950E944301089580E790E00E94200302
:1002400061E070E088EB9BE00E94B80381E00E94CF
:100250008402089541E066E084E40E940C0241E0DB
:1002600067E084E40E940C02089540E066E084E4C4
:100270000E940C0240E067E084E40E940C020895B2
:100280000E949300089541E065E084E40E940C021E
:1002900089EF90E00197F1F700C0000040E065E0D1
:1002A00084E40E940C029FE72AE186E091502040FE
:1002B0008040E1F700C00000089541E065E084E47B
:1002C0000E940C0283EF91E00197F1F700C000005B
:1002D00040E065E084E40E940C029FE72AE186E0AA
:1002E000915020408040E1F700C0000008950E9436
:1002F00049000E940101FDCF87B1806487B916B81B
:1003000086B1806886B9089597B18F70982B97B998
:1003100086B1806486B9349BFECF24B185B190E06C
:10032000982F8827822B0895823429F118F481347C
:1003300039F008958334D1F1843409F452C008951A
:10034000413059F42AB381E090E002C0880F991F30
:100350006A95E2F7822B8ABB089541115CC02AB3EB
:1003600081E090E002C0880F991F6A95E2F78095BE
:1003700082238ABB0895413059F427B381E090E08D
:1003800002C0880F991F6A95E2F7822B87BB0895F8
:10039000411141C027B381E090E002C0880F991F4E
:1003A0006A95E2F78095822387BB0895413059F41E
:1003B00024B381E090E002C0880F991F6A95E2F7AC
:1003C000822B84BB0895411126C024B381E090E0C4
:1003D00002C0880F991F6A95E2F78095822384BB3B
:1003E0000895413059F421B381E090E002C0880FB4
:1003F000991F6A95E2F7822B81BB089541110BC0CA
:1004000021B381E090E002C0880F991F6A95E2F75E
:100410008095822381BB0895823429F118F48134B8
:1004200039F008958334D1F1843409F452C0089529
:10043000413059F42BB381E090E002C0880F991F3E
:100440006A95E2F7822B8BBB089541115CC02BB3F8
:1004500081E090E002C0880F991F6A95E2F78095CD
:1004600082238BBB0895413059F428B381E090E09A
:1004700002C0880F991F6A95E2F7822B88BB089506
:10048000411141C028B381E090E002C0880F991F5C
:100490006A95E2F78095822388BB0895413059F42C
:1004A00025B381E090E002C0880F991F6A95E2F7BA
:1004B000822B85BB0895411126C025B381E090E0D1
:1004C00002C0880F991F6A95E2F78095822385BB49
:1004D0000895413059F422B381E090E002C0880FC2
:1004E000991F6A95E2F7822B82BB089541110BC0D8
:1004F00022B381E090E002C0880F991F6A95E2F76D
:100500008095822382BB0895CF93C82F85B38F70C7
:100510009C2F907F892B85BB82B38B7F82BB82B35C
:10052000877F82BB82B3806182BB61E070E081E043
:1005300090E00E94B80382B38F7E82BB61E070E0DE
:1005400081E090E00E94B80325B330E1C39FC00171
:100550001124922F9F70892B85BB82B3806182BB4F
:1005600061E070E081E090E00E94B80382B38F7E8A
:1005700082BB61E070E081E090E00E94B803CF911F
:10058000089581B38C6181BB84B3806F84BB80E0AC
:100590000E94560361E070E084E190E00E94B8039D
:1005A00082E00E94840288E20E9484028CE00E9421
:1005B000840286E00E94840281E00E94840280E836
:1005C0000E9484020895CF93C82F85B38F709C2F0B
:1005D000907F892B85BB82B3846082BB82B3877F87
:1005E00082BB82B3806182BB61E070E081E090E019
:1005F0000E94B80382B38F7E82BB61E070E081E02D
:1006000090E00E94B80325B330E1C39FC0011124DC
:10061000922F9F70892B85BB82B3806182BB61E082
:1006200070E081E090E00E94B80382B38F7E82BBCD
:1006300061E070E081E090E00E94B803CF910895FE
:100640000F931F93CF938C01C0E003C00E94E3027D
:10065000CF5FF801EC0FF11D80818111F7CFCF91B1
:100660001F910F9108958FEF8ABB40E064E082E410
:100670000E94940140E067E082E40E94940140E01F
:1006800065E082E40E94940141E066E082E40E9419
:1006900094018DB182648DB98EB18E7F8EB908952B
:1006A0008FEF8FB9779BFECF8FB10895813069F0BE
:1006B00028F0823089F08330B1F0089583B7877FC6
:1006C00083BF83B78F7B83BF089583B7877F83BF43
:1006D00083B7806483BF089583B7886083BF83B77F
:1006E0008F7B83BF089583B7886083BF83B780649F
:1006F00083BF089588309105D1F048F48530910585
:1007000031F18630910539F1019741F50CC0811521
:1007100021E09207A1F0811524E09207A1F0803436
:100720009105E1F408C083B7816083BF089583B762
:10073000826083BF089583B7836083BF089583B7C2
:10074000846083BF089583B7856083BF089583B7AE
:10075000866083BF089583B7876083BF089508B616
:1007600000FEFDCF88B7816088BF089513BE08954D
:100770004F925F926F927F928F929F92AF92BF92B1
:10078000CF92DF92EF92FF92CF93DF9300D000D011
:1007900000D0CDB7DEB77E836D83BC0180E090E0F2
:1007A0000E94DD0569837A838B839C832FE632E187
:1007B00043E85AE30E94D5064B015C0160938E002A
:1007C00070938F0080939000909391002D813E81D3
:1007D000B90180E090E00E94DD0520E034E244E7CA
:1007E00059E40E943C052B013C01609395007093F5
:1007F0009600809397009093980020E030E040E8C6
:1008000053E40E94D5066B017C0160938A007093CB
:100810008B0080938C0090938D009B01AC016981CB
:100820007A818B819C810E9437058823BCF42981C1
:100830003A814B815C81C701B6010E94B304A301D8
:1008400092010E943C050E94AE056093940081E0F5
:1008500090E090938500809384004CC0A70196019E
:1008600069817A818B819C810E943705811109C041
:100870001092940081E090E0909385008093840032
:1008800039C0A7019601C501B4010E94D00618160F
:100890008CF5A7019601C501B4010E943C050E9498
:1008A00020050E94AE056B017C017093850060936A
:1008B0008400A3019201C501B4010E943C054B01D3
:1008C0005C01B60180E090E00E94DD059B01AC0177
:1008D000C501B4010E943C059B01AC0160E070E0E1
:1008E00080E893E40E94B3040E9420050E94AE05B4
:1008F000609394008091940082BF8D819E810E94BC
:100900007A030BC00E94AF038091920090919300F4
:1009100001969093930080939200209192003091E1
:10092000930080918400909185002817390750F337
:1009300010929300109292000E94B60326960FB672
:10094000F894DEBF0FBECDBFDF91CF91FF90EF9047
:10095000DF90CF90BF90AF909F908F907F906F90DF
:100960005F904F9008955058BB27AA270E94CB0450
:100970000C947E060E94700638F00E94770620F0E4
:1009800039F49F3F19F426F40C946D060EF4E095AB
:10099000E7FB0C943E06E92F0E948F0658F3BA1726
:1009A000620773078407950720F079F4A6F50C9485
:1009B000C9060EF4E0950B2EBA2FA02D0B01B9013C
:1009C00090010C01CA01A0011124FF27591B99F0C5
:1009D000593F50F4503E68F11A16F040A22F232FD1
:1009E000342F4427585FF3CF469537952795A79521
:1009F000F0405395C9F77EF41F16BA0B620B730BC8
:100A0000840BBAF09150A1F0FF0FBB1F661F771F38
:100A1000881FC2F70EC0BA0F621F731F841F48F4ED
:100A2000879577956795B795F7959E3F08F0B0CF76
:100A30009395880F08F09927EE0F9795879508955D
:100A40000E94B10690F09F3748F4911116F40C946F
:100A5000CA0660E070E080E89FE3089526F01B1668
:100A6000611D711D811D0C9444060C945F060E944B
:100A70001A0608F481E008950E9450050C947E0641
:100A80000E94770658F00E94700640F029F45F3FFC
:100A900029F00C943E0651110C94CA060C946D0674
:100AA0000E948F0668F39923B1F3552391F3951BA8
:100AB000550BBB27AA2762177307840738F09F5F7F
:100AC0005F4F220F331F441FAA1FA9F335D00E2EEC
:100AD0003AF0E0E832D091505040E695001CCAF759
:100AE0002BD0FE2F29D0660F771F881FBB1F26171C
:100AF00037074807AB07B0E809F0BB0B802DBF01F3
:100B0000FF2793585F4F3AF09E3F510578F00C94C1
:100B10003E060C94CA065F3FE4F3983ED4F38695F4
:100B200077956795B795F7959F5FC9F7880F911DE2
:100B30009695879597F90895E1E0660F771F881FCE
:100B4000BB1F621773078407BA0720F0621B730B81
:100B5000840BBA0BEE1F88F7E09508950E94970664
:100B600088F09F5798F0B92F9927B751B0F0E1F06E
:100B7000660F771F881F991F1AF0BA95C9F714C01E
:100B8000B13091F00E94C906B1E008950C94C906F5
:100B9000672F782F8827B85F39F0B93FCCF3869557
:100BA00077956795B395D9F73EF4909580957095B4
:100BB00061957F4F8F4F9F4F0895E89409C097FB31
:100BC0003EF490958095709561957F4F8F4F9F4F24
:100BD0009923A9F0F92F96E9BB279395F695879568
:100BE00077956795B795F111F8CFFAF4BB0F11F42B
:100BF00060FF1BC06F5F7F4F8F4F9F4F16C08823D2
:100C000011F096E911C0772321F09EE8872F762F07
:100C100005C0662371F096E8862F70E060E02AF048
:100C20009A95660F771F881FDAF7880F9695879534
:100C300097F90895990F0008550FAA0BE0E8FEEF09
:100C400016161706E807F907C0F012161306E40790
:100C5000F50798F0621B730B840B950B39F40A2689
:100C600061F0232B242B252B21F408950A2609F467
:100C7000A140A6958FEF811D811D089597F99F676B
:100C800080E870E060E00895882371F4772321F014
:100C90009850872B762F07C0662311F499270DC033
:100CA0009051862B70E060E02AF09A95660F771FCE
:100CB000881FDAF7880F9695879597F908959F3FD3
:100CC00031F0915020F4879577956795B795880F07
:100CD000911D9695879597F908959FEF80EC08955B
:100CE00000240A941616170618060906089500240B
:100CF0000A9412161306140605060895092E039485
:100D0000000C11F4882352F0BB0F40F4BF2B11F4F8
:100D100060FF04C06F5F7F4F8F4F9F4F089557FD57
:100D20009058440F551F59F05F3F71F04795880F59
:100D300097FB991F61F09F3F79F0879508951216F0
:100D400013061406551FF2CF4695F1DF08C016169C
:100D500017061806991FF1CF86957105610508944D
:100D600008950E949706A0F0BEE7B91788F4BB2744
:100D70009F3860F41616B11D672F782F8827985F6B
:100D8000F7CF869577956795B11D93959639C8F3FA
:100D90000895E894BB2766277727CB0197F9089534
:100DA0000E941A0608F48FEF08950E94E8060C943A
:100DB0007E060E94700638F00E94770620F0952388
:100DC00011F00C943E060C946D0611240C94CA0686
:100DD0000E948F0670F3959FC1F3950F50E0551F49
:100DE000629FF001729FBB27F00DB11D639FAA2780
:100DF000F00DB11DAA1F649F6627B00DA11D661FCF
:100E0000829F2227B00DA11D621F739FB00DA11DEF
:100E1000621F839FA00D611D221F749F3327A00DA9
:100E2000611D231F849F600D211D822F762F6A2F45
:100E300011249F5750409AF0F1F088234AF0EE0FAA
:100E4000FF1FBB1F661F771F881F91505040A9F7D7
:100E50009E3F510580F00C943E060C94CA065F3FFD
:100E6000E4F3983ED4F3869577956795B795F79513
:100E7000E7959F5FC1F7FE2B880F911D969587958B
:100E800097F90895A29FB001B39FC001A39F700D71
:100E9000811D1124911DB29F700D811D1124911D82
:060EA0000895F894FFCF55
:100EA60001004144432076616C75652069733A0000
:080EB60057656C636F6D650068
:00000001FF
