:100000000C942A000C9447000C9442010C94670154
:100010000C9447000C9447000C9447000C94470044
:100020000C9447000C9447000C9447000C94470034
:100030000C9447000C9447000C9447000C94470024
:100040000C9447000C9447000C9447000C94470014
:100050000C94470011241FBECFE5D8E0DEBFCDBF12
:1000600010E0A0E6B0E0EEE7F0E102C005900D92EE
:10007000AE3AB107D9F720E0AEEAB0E001C01D9278
:10008000A43DB207E1F70E942E010C943D080C94A8
:10009000000040E063E084E40E948C0140E062E004
:1000A00082E40E948C010E94AB030E948F020E9496
:1000B0001D041092B1008FB780688FBF85B7846030
:1000C00085BF85B7886085BF84B7806484BF8BB7E0
:1000D000806A8BBF08950895CF93DF9385EA90E0FF
:1000E0000E940A0461E070E088EE93E00E94B3048D
:1000F00081E00E946E0386E990E00E940A0461E0BC
:1001000070E088EE93E00E94B30481E00E946E03E9
:100110009DC00E9447038091B000833609F096C0CD
:100120001092AF008091BA00813029F5C6EBD0E083
:10013000688180E090E00E947C02698181E090E02B
:100140000E947C026A8182E090E00E947C026B81C6
:1001500083E090E00E947C0280E690E00E940A0426
:1001600061E070E080ED97E00E94B30481E00E94BE
:100170006E031092BA0080E090E00E9487028093A4
:10018000BD0081E090E00E9487028093B20082E08F
:1001900090E00E9487028093BB0083E090E00E9481
:1001A00087028093B3009091B6002091BD00921316
:1001B00021C03091B7002091B20032131BC03091A2
:1001C000B8002091BB00321315C02091B9008213F2
:1001D00011C087E890E00E940A0461E070E080EDC1
:1001E00097E00E94B30481E00E946E0381E0809357
:1001F000B5002CC09033E9F48091B7008033C9F486
:100200008091B8008033A9F48091B900803389F4DB
:1002100088E790E00E940A0481E08093BA0061E0E0
:1002200070E088E893E10E94B30481E00E946E03CD
:100230000DC08DE690E00E940A0461E070E080ED60
:1002400097E00E94B30481E00E946E038091B500A4
:10025000882309F45ECFDF91CF9108950E94490071
:100260000E946C008091B500882349F081E00E94D3
:100270003D0482E00E943D040E946B00FDCF80E0BF
:1002800090E008951F920F920FB60F9211242F93B2
:100290003F934F935F936F937F938F939F93AF930E
:1002A000BF93EF93FF9380E00E943D04FF91EF9195
:1002B000BF91AF919F918F917F916F915F914F917E
:1002C0003F912F910F900FBE0F901F9018951F9286
:1002D0000F920FB60F9211242F933F934F935F937A
:1002E0006F937F938F939F93AF93BF93EF93FF93FE
:1002F00083E00E943D04FF91EF91BF91AF919F91E8
:100300008F917F916F915F914F913F912F910F90BE
:100310000FBE0F901F901895823429F118F4813484
:1003200039F008958334D1F1843409F452C008952A
:10033000413059F42AB381E090E002C0880F991F40
:100340006A95E2F7822B8ABB089541115CC02AB3FB
:1003500081E090E002C0880F991F6A95E2F78095CE
:1003600082238ABB0895413059F427B381E090E09D
:1003700002C0880F991F6A95E2F7822B87BB089508
:10038000411141C027B381E090E002C0880F991F5E
:100390006A95E2F78095822387BB0895413059F42E
:1003A00024B381E090E002C0880F991F6A95E2F7BC
:1003B000822B84BB0895411126C024B381E090E0D4
:1003C00002C0880F991F6A95E2F78095822384BB4B
:1003D0000895413059F421B381E090E002C0880FC4
:1003E000991F6A95E2F7822B81BB089541110BC0DA
:1003F00021B381E090E002C0880F991F6A95E2F76F
:100400008095822381BB0895823429F118F48134C8
:1004100039F008958334D1F1843409F452C0089539
:10042000413059F42BB381E090E002C0880F991F4E
:100430006A95E2F7822B8BBB089541115CC02BB308
:1004400081E090E002C0880F991F6A95E2F78095DD
:1004500082238BBB0895413059F428B381E090E0AA
:1004600002C0880F991F6A95E2F7822B88BB089516
:10047000411141C028B381E090E002C0880F991F6C
:100480006A95E2F78095822388BB0895413059F43C
:1004900025B381E090E002C0880F991F6A95E2F7CA
:1004A000822B85BB0895411126C025B381E090E0E1
:1004B00002C0880F991F6A95E2F78095822385BB59
:1004C0000895413059F422B381E090E002C0880FD2
:1004D000991F6A95E2F7822B82BB089541110BC0E8
:1004E00022B381E090E002C0880F991F6A95E2F77D
:1004F0008095822382BB0895E199FECF8EBB6DBBB0
:100500008CB384608CBB8CB382608CBB0895E19902
:10051000FECF8EBB8CB381608CBB8DB308958FE012
:100520008ABB8FEF87BB8BBB18BA0895CC9906C0E6
:10053000CC9BFECF87E38093BE000895CD9906C083
:10054000CD9BFECF88E38093BE000895CE9906C070
:10055000CE9BFECF89E38093BE000895CF9906C05D
:10056000CF9BFECF8FE28093BE0008958BB3816056
:100570008BBB61E070E08AE090E00E94B3048BB333
:100580008D7F8BBBCC9906C0CC9BFECF84E3809340
:10059000BE000895CD9906C0CD9BFECF85E3809324
:1005A000BE000895CE9906C0CE9BFECF86E3809311
:1005B000BE000895CF9906C0CF9BFECF8AE28093FC
:1005C000BE0008958BB382608BBB61E070E08AE06F
:1005D00090E00E94B3048BB38B7F8BBBCC9906C099
:1005E000CC9BFECF81E38093BE000895CD9906C0D9
:1005F000CD9BFECF82E38093BE000895CE9906C0C6
:10060000CE9BFECF83E38093BE000895CF9906C0B2
:10061000CF9BFECF8DE28093BE0008958BB38460A4
:100620008BBB61E070E08AE090E00E94B3048BB382
:10063000877F8BBBCC9906C0CC9BFECF83E6809393
:10064000BE000895CD9906C0CD9BFECF80E3809378
:10065000BE000895CE9906C0CE9BFECF8DE3809359
:10066000BE000895CF9906C0CF9BFECF8BE280934A
:10067000BE0008958BB388608BBB61E070E08AE0B8
:1006800090E00E94B3048FE58093BE0008958BB381
:100690008E7F8BBB89B38F3F01F10E9496028093BE
:1006A000B0008F35A1F0833621F481E00E946E0303
:1006B0000EC09091AF00943040F4E92FF0E0EA547E
:1006C000FF4F80839F5F9093AF000E94CD0361E056
:1006D00070E084E690E00E94B3040895CF93C82FA1
:1006E00085B38F709C2F907F892B85BB82B38E7FC3
:1006F00082BB82B38D7F82BB82B3846082BB61E0A8
:1007000070E081E090E00E94B30482B38B7F82BBF3
:1007100061E070E081E090E00E94B30425B330E135
:10072000C39FC0011124922F9F70892B85BB82B378
:10073000846082BB61E070E081E090E00E94B304DD
:1007400082B38B7F82BB61E070E081E090E00E9429
:10075000B304CF91089581B3876081BB84B3806F68
:1007600084BB80E00E94510461E070E084E190E08D
:100770000E94B30482E00E946E0388E20E946E032E
:100780008CE00E946E0386E00E946E0381E00E946E
:100790006E0380E80E946E030895CF93C82F85B33F
:1007A0008F709C2F907F892B85BB82B3816082BB29
:1007B00082B38D7F82BB82B3846082BB61E070E0D4
:1007C00081E090E00E94B30482B38B7F82BB61E042
:1007D00070E081E090E00E94B30425B330E1C39F54
:1007E000C0011124922F9F70892B85BB82B3846036
:1007F00082BB61E070E081E090E00E94B30482B3CC
:100800008B7F82BB61E070E081E090E00E94B304E6
:10081000CF9108950F931F93CF938C01C0E003C035
:100820000E94CD03CF5FF801EC0FF11D8081811193
:10083000F7CFCF911F910F91089541E064E082E4DA
:100840000E948C0141E067E082E40E948C0141E05B
:1008500065E082E40E948C0140E066E082E40E9450
:100860008C0141E064E082E40E9404028DB1826563
:100870008DB98EB18E7F8EB90895CF93C82F40E089
:1008800064E082E40E940402CFB9779BFECF8FB16F
:100890008093AE0041E064E082E40E940402CF91C4
:1008A0000895813069F028F0823089F08330B1F00A
:1008B000089583B7877F83BF83B78F7B83BF0895F6
:1008C00083B7877F83BF83B7806483BF089583B76F
:1008D000886083BF83B78F7B83BF089583B78860A9
:1008E00083BF83B7806483BF089588309105D1F0BA
:1008F00048F48530910531F18630910539F1019741
:1009000041F50CC0811521E09207A1F0811524E08A
:100910009207A1F080349105E1F408C083B78160AB
:1009200083BF089583B7826083BF089583B78360D0
:1009300083BF089583B7846083BF089583B78560BC
:1009400083BF089583B7866083BF089583B78760A8
:1009500083BF089508B600FEFDCF88B7816088BFC9
:10096000089513BE08954F925F926F927F928F9277
:100970009F92AF92BF92CF92DF92EF92FF92CF936E
:10098000DF9300D000D000D0CDB7DEB77E836D837B
:10099000BC0180E090E00E94D80669837A838B8353
:1009A0009C832FE632E143E85AE30E94D0074B01D3
:1009B0005C016093C9007093CA008093CB00909350
:1009C000CC002D813E81B90180E090E00E94D806E4
:1009D00020E034E244E759E40E9437062B013C0151
:1009E0006093D0007093D1008093D2009093D30095
:1009F00020E030E040E853E40E94D0076B017C0126
:100A00006093C5007093C6008093C7009093C800A0
:100A10009B01AC0169817A818B819C810E943206A5
:100A20008823BCF429813A814B815C81C701B601DE
:100A30000E94AE05A30192010E9437060E94A906FA
:100A40006093CF0081E090E09093C0008093BF005E
:100A50004CC0A701960169817A818B819C810E949B
:100A60003206811109C01092CF0081E090E090938E
:100A7000C0008093BF0039C0A7019601C501B40131
:100A80000E94CB0718168CF5A7019601C501B40189
:100A90000E9437060E941B060E94A9066B017C017A
:100AA0007093C0006093BF00A3019201C501B4011F
:100AB0000E9437064B015C01B60180E090E00E9485
:100AC000D8069B01AC01C501B4010E9437069B0109
:100AD000AC0160E070E080E893E40E94AE050E9403
:100AE0001B060E94A9066093CF008091CF0082BFB1
:100AF0008D819E810E9475040BC00E94AA04809182
:100B0000CD009091CE0001969093CE008093CD00C1
:100B10002091CD003091CE008091BF009091C00017
:100B20002817390750F31092CE001092CD000E9482
:100B3000B10426960FB6F894DEBF0FBECDBFDF918D
:100B4000CF91FF90EF90DF90CF90BF90AF909F90AC
:100B50008F907F906F905F904F9008955058BB2773
:100B6000AA270E94C6050C9479070E946B0738F0EB
:100B70000E94720720F039F49F3F19F426F40C9478
:100B800068070EF4E095E7FB0C943907E92F0E9403
:100B90008A0758F3BA17620773078407950720F08E
:100BA00079F4A6F50C94C4070EF4E0950B2EBA2F39
:100BB000A02D0B01B90190010C01CA01A001112463
:100BC000FF27591B99F0593F50F4503E68F11A160F
:100BD000F040A22F232F342F4427585FF3CF4695A0
:100BE00037952795A795F0405395C9F77EF41F16C2
:100BF000BA0B620B730B840BBAF09150A1F0FF0F8C
:100C0000BB1F661F771F881FC2F70EC0BA0F621F77
:100C1000731F841F48F4879577956795B795F79567
:100C20009E3F08F0B0CF9395880F08F09927EE0FFC
:100C30009795879508950E94AC0790F09F3748F4E8
:100C4000911116F40C94C50760E070E080E89FE312
:100C5000089526F01B16611D711D811D0C943F0720
:100C60000C945A070E94150708F481E008950E9429
:100C70004B060C9479070E94720758F00E946B078C
:100C800040F029F45F3F29F00C94390751110C947E
:100C9000C5070C9468070E948A0768F39923B1F38B
:100CA000552391F3951B550BBB27AA276217730792
:100CB000840738F09F5F5F4F220F331F441FAA1F26
:100CC000A9F335D00E2E3AF0E0E832D091505040E2
:100CD000E695001CCAF72BD0FE2F29D0660F771F90
:100CE000881FBB1F261737074807AB07B0E809F076
:100CF000BB0B802DBF01FF2793585F4F3AF09E3FFB
:100D0000510578F00C9439070C94C5075F3FE4F364
:100D1000983ED4F3869577956795B795F7959F5F3D
:100D2000C9F7880F911D9695879597F90895E1E089
:100D3000660F771F881FBB1F621773078407BA07E8
:100D400020F0621B730B840BBA0BEE1F88F7E09543
:100D500008950E94920788F09F5798F0B92F99271D
:100D6000B751B0F0E1F0660F771F881F991F1AF096
:100D7000BA95C9F714C0B13091F00E94C407B1E030
:100D800008950C94C407672F782F8827B85F39F02F
:100D9000B93FCCF3869577956795B395D9F73EF42F
:100DA00090958095709561957F4F8F4F9F4F0895D7
:100DB000E89409C097FB3EF49095809570956195F5
:100DC0007F4F8F4F9F4F9923A9F0F92F96E9BB27AB
:100DD0009395F695879577956795B795F111F8CF27
:100DE000FAF4BB0F11F460FF1BC06F5F7F4F8F4F92
:100DF0009F4F16C0882311F096E911C0772321F088
:100E00009EE8872F762F05C0662371F096E8862F1F
:100E100070E060E02AF09A95660F771F881FDAF776
:100E2000880F9695879597F90895990F0008550FA3
:100E3000AA0BE0E8FEEF16161706E807F907C0F060
:100E400012161306E407F50798F0621B730B840B68
:100E5000950B39F40A2661F0232B242B252B21F442
:100E600008950A2609F4A140A6958FEF811D811DE2
:100E7000089597F99F6780E870E060E008958823FF
:100E800071F4772321F09850872B762F07C06623C3
:100E900011F499270DC09051862B70E060E02AF084
:100EA0009A95660F771F881FDAF7880F96958795B2
:100EB00097F908959F3F31F0915020F487957795E9
:100EC0006795B795880F911D9695879597F9089521
:100ED0009FEF80EC089500240A9416161706180652
:100EE0000906089500240A9412161306140605062E
:100EF0000895092E0394000C11F4882352F0BB0FBF
:100F000040F4BF2B11F460FF04C06F5F7F4F8F4F21
:100F10009F4F089557FD9058440F551F59F05F3F5C
:100F200071F04795880F97FB991F61F09F3F79F00B
:100F300087950895121613061406551FF2CF46958D
:100F4000F1DF08C0161617061806991FF1CF86950F
:100F500071056105089408950E949207A0F0BEE70C
:100F6000B91788F4BB279F3860F41616B11D672F98
:100F7000782F8827985FF7CF869577956795B11D6D
:100F800093959639C8F30895E894BB276627772789
:100F9000CB0197F908950E94150708F48FEF089583
:100FA0000E94E3070C9479070E946B0738F00E94B7
:100FB000720720F0952311F00C9439070C94680700
:100FC00011240C94C5070E948A0770F3959FC1F302
:100FD000950F50E0551F629FF001729FBB27F00DE7
:100FE000B11D639FAA27F00DB11DAA1F649F66273C
:100FF000B00DA11D661F829F2227B00DA11D621F8B
:10100000739FB00DA11D621F839FA00D611D221F44
:10101000749F3327A00D611D231F849F600D211D28
:10102000822F762F6A2F11249F5750409AF0F1F0AB
:1010300088234AF0EE0FFF1FBB1F661F771F881F14
:1010400091505040A9F79E3F510580F00C9439070C
:101050000C94C5075F3FE4F3983ED4F386957795EB
:101060006795B795F795E7959F5FC1F7FE2B880FBA
:0E107000911D9695879597F90895F894FFCFF6
:10107E0050617373206368616E6765640057726FA9
:10108E006E67205061737300456E746572204E65F5
:10109E0077205061737300414343455353204752A9
:1010AE00414E54454400456E746572205061737311
:0E10BE00776F72640057656C636F6D6500009C
:00000001FF
